{
  "address": "0xa38dB8BD92d9dfD7ABCE176C8175c3595CDcaed4",
  "abi": [
    {
      "inputs": [
        {
          "internalType": "address",
          "name": "vrfCoordinatorV2",
          "type": "address"
        },
        {
          "internalType": "uint256",
          "name": "entranceFee",
          "type": "uint256"
        },
        {
          "internalType": "bytes32",
          "name": "gasLane",
          "type": "bytes32"
        },
        {
          "internalType": "uint64",
          "name": "subscriptionId",
          "type": "uint64"
        },
        {
          "internalType": "uint32",
          "name": "callbackGasLimit",
          "type": "uint32"
        },
        {
          "internalType": "uint256",
          "name": "lotteryInterval",
          "type": "uint256"
        }
      ],
      "stateMutability": "nonpayable",
      "type": "constructor"
    },
    {
      "inputs": [
        {
          "internalType": "address",
          "name": "have",
          "type": "address"
        },
        {
          "internalType": "address",
          "name": "want",
          "type": "address"
        }
      ],
      "name": "OnlyCoordinatorCanFulfill",
      "type": "error"
    },
    {
      "inputs": [],
      "name": "Raffle__NotEnoughETHToEnterRaffle",
      "type": "error"
    },
    {
      "inputs": [],
      "name": "Raffle__RaffleNotOpen",
      "type": "error"
    },
    {
      "inputs": [],
      "name": "Raffle__TransferRafflePrizeFailed",
      "type": "error"
    },
    {
      "inputs": [
        {
          "internalType": "uint256",
          "name": "currentBalance",
          "type": "uint256"
        },
        {
          "internalType": "uint256",
          "name": "numPlayers",
          "type": "uint256"
        },
        {
          "internalType": "uint256",
          "name": "raffleState",
          "type": "uint256"
        }
      ],
      "name": "Raffle__UpkeepNotNeeded",
      "type": "error"
    },
    {
      "anonymous": false,
      "inputs": [
        {
          "indexed": true,
          "internalType": "address",
          "name": "winner",
          "type": "address"
        }
      ],
      "name": "LotteryWinnerPicked",
      "type": "event"
    },
    {
      "anonymous": false,
      "inputs": [
        {
          "indexed": true,
          "internalType": "address",
          "name": "player",
          "type": "address"
        }
      ],
      "name": "RaffleEnter",
      "type": "event"
    },
    {
      "anonymous": false,
      "inputs": [
        {
          "indexed": true,
          "internalType": "uint256",
          "name": "requestId",
          "type": "uint256"
        }
      ],
      "name": "RequestedRaffleWinner",
      "type": "event"
    },
    {
      "inputs": [
        {
          "internalType": "bytes",
          "name": "",
          "type": "bytes"
        }
      ],
      "name": "checkUpkeep",
      "outputs": [
        {
          "internalType": "bool",
          "name": "upkeepNeeded",
          "type": "bool"
        },
        {
          "internalType": "bytes",
          "name": "",
          "type": "bytes"
        }
      ],
      "stateMutability": "view",
      "type": "function"
    },
    {
      "inputs": [],
      "name": "enterRaffle",
      "outputs": [],
      "stateMutability": "payable",
      "type": "function"
    },
    {
      "inputs": [],
      "name": "getEntranceFee",
      "outputs": [
        {
          "internalType": "uint256",
          "name": "",
          "type": "uint256"
        }
      ],
      "stateMutability": "view",
      "type": "function"
    },
    {
      "inputs": [],
      "name": "getInterval",
      "outputs": [
        {
          "internalType": "uint256",
          "name": "",
          "type": "uint256"
        }
      ],
      "stateMutability": "view",
      "type": "function"
    },
    {
      "inputs": [],
      "name": "getLastTimeStamp",
      "outputs": [
        {
          "internalType": "uint256",
          "name": "",
          "type": "uint256"
        }
      ],
      "stateMutability": "view",
      "type": "function"
    },
    {
      "inputs": [],
      "name": "getNumWords",
      "outputs": [
        {
          "internalType": "uint256",
          "name": "",
          "type": "uint256"
        }
      ],
      "stateMutability": "pure",
      "type": "function"
    },
    {
      "inputs": [],
      "name": "getNumberOfPlayers",
      "outputs": [
        {
          "internalType": "uint256",
          "name": "",
          "type": "uint256"
        }
      ],
      "stateMutability": "view",
      "type": "function"
    },
    {
      "inputs": [
        {
          "internalType": "uint256",
          "name": "index",
          "type": "uint256"
        }
      ],
      "name": "getPlayer",
      "outputs": [
        {
          "internalType": "address",
          "name": "",
          "type": "address"
        }
      ],
      "stateMutability": "view",
      "type": "function"
    },
    {
      "inputs": [],
      "name": "getRaffleState",
      "outputs": [
        {
          "internalType": "enum Raffle.RaffleState",
          "name": "",
          "type": "uint8"
        }
      ],
      "stateMutability": "view",
      "type": "function"
    },
    {
      "inputs": [],
      "name": "getRecentWinner",
      "outputs": [
        {
          "internalType": "address",
          "name": "",
          "type": "address"
        }
      ],
      "stateMutability": "view",
      "type": "function"
    },
    {
      "inputs": [],
      "name": "getRequestConfirmations",
      "outputs": [
        {
          "internalType": "uint256",
          "name": "",
          "type": "uint256"
        }
      ],
      "stateMutability": "pure",
      "type": "function"
    },
    {
      "inputs": [
        {
          "internalType": "bytes",
          "name": "",
          "type": "bytes"
        }
      ],
      "name": "performUpkeep",
      "outputs": [],
      "stateMutability": "nonpayable",
      "type": "function"
    },
    {
      "inputs": [
        {
          "internalType": "uint256",
          "name": "requestId",
          "type": "uint256"
        },
        {
          "internalType": "uint256[]",
          "name": "randomWords",
          "type": "uint256[]"
        }
      ],
      "name": "rawFulfillRandomWords",
      "outputs": [],
      "stateMutability": "nonpayable",
      "type": "function"
    }
  ],
  "transactionHash": "0x6a06c2059875838b58cba8a8142afb32da8ad922971ad96f5b29e5e98ff7cd09",
  "args": [
    "0x2Ca8E0C643bDe4C2E08ab1fA0da3401AdAD7734D",
    "10000000000000000",
    "0x79d3d8832d904592c0bf9818b621522c988bb8b0c05cdc3b15aea1b6e8db0c15",
    "4636",
    "500000",
    "30"
  ],
  "numDeployments": 1,
  "solcInputHash": "2f7eed76a6e61da43bf0f4e2a78b7adb",
  "bytecode": "0x6101606040523480156200001257600080fd5b506040516200180138038062001801833981810160405281019062000038919062000294565b858073ffffffffffffffffffffffffffffffffffffffff1660808173ffffffffffffffffffffffffffffffffffffffff1681525050508460a081815250508573ffffffffffffffffffffffffffffffffffffffff1660c08173ffffffffffffffffffffffffffffffffffffffff16815250508360e081815250508267ffffffffffffffff166101008167ffffffffffffffff16815250508163ffffffff166101208163ffffffff16815250506000600160146101000a81548160ff021916908360018111156200010d576200010c62000330565b5b0217905550426002819055508061014081815250505050505050506200035f565b600080fd5b600073ffffffffffffffffffffffffffffffffffffffff82169050919050565b6000620001608262000133565b9050919050565b620001728162000153565b81146200017e57600080fd5b50565b600081519050620001928162000167565b92915050565b6000819050919050565b620001ad8162000198565b8114620001b957600080fd5b50565b600081519050620001cd81620001a2565b92915050565b6000819050919050565b620001e881620001d3565b8114620001f457600080fd5b50565b6000815190506200020881620001dd565b92915050565b600067ffffffffffffffff82169050919050565b6200022d816200020e565b81146200023957600080fd5b50565b6000815190506200024d8162000222565b92915050565b600063ffffffff82169050919050565b6200026e8162000253565b81146200027a57600080fd5b50565b6000815190506200028e8162000263565b92915050565b60008060008060008060c08789031215620002b457620002b36200012e565b5b6000620002c489828a0162000181565b9650506020620002d789828a01620001bc565b9550506040620002ea89828a01620001f7565b9450506060620002fd89828a016200023c565b93505060806200031089828a016200027d565b92505060a06200032389828a01620001bc565b9150509295509295509295565b7f4e487b7100000000000000000000000000000000000000000000000000000000600052602160045260246000fd5b60805160a05160c05160e051610100516101205161014051611432620003cf600039600081816107dc015261084a0152600061069b01526000610678015260006106570152600061061b0152600081816102fa01526103f7015260008181610337015261038b01526114326000f3fe6080604052600436106100c25760003560e01c806353a2c19a1161007f57806391ad27b41161005957806391ad27b414610238578063c1c244e814610263578063e55ae4e81461028e578063fd6673f5146102cb576100c2565b806353a2c19a146101a45780635f1b0fd8146101cf5780636e04ff0d146101fa576100c2565b806309bc33a7146100c7578063115cbaf5146100f25780631fe543e31461011d5780632cfcc539146101465780634585e33b14610150578063473f1ddc14610179575b600080fd5b3480156100d357600080fd5b506100dc6102f6565b6040516100e99190610bbc565b60405180910390f35b3480156100fe57600080fd5b5061010761031e565b6040516101149190610c4e565b60405180910390f35b34801561012957600080fd5b50610144600480360381019061013f9190610e02565b610335565b005b61014e6103f5565b005b34801561015c57600080fd5b5061017760048036038101906101729190610eb9565b610564565b005b34801561018557600080fd5b5061018e610754565b60405161019b9190610f47565b60405180910390f35b3480156101b057600080fd5b506101b961077e565b6040516101c69190610bbc565b60405180910390f35b3480156101db57600080fd5b506101e461078d565b6040516101f19190610bbc565b60405180910390f35b34801561020657600080fd5b50610221600480360381019061021c9190611017565b61079a565b60405161022f9291906110fa565b60405180910390f35b34801561024457600080fd5b5061024d610846565b60405161025a9190610bbc565b60405180910390f35b34801561026f57600080fd5b5061027861086e565b6040516102859190610bbc565b60405180910390f35b34801561029a57600080fd5b506102b560048036038101906102b0919061112a565b610878565b6040516102c29190610f47565b60405180910390f35b3480156102d757600080fd5b506102e06108bf565b6040516102ed9190610bbc565b60405180910390f35b60007f0000000000000000000000000000000000000000000000000000000000000000905090565b6000600160149054906101000a900460ff16905090565b7f000000000000000000000000000000000000000000000000000000000000000073ffffffffffffffffffffffffffffffffffffffff163373ffffffffffffffffffffffffffffffffffffffff16146103e757337f00000000000000000000000000000000000000000000000000000000000000006040517f1cf993f40000000000000000000000000000000000000000000000000000000081526004016103de929190611157565b60405180910390fd5b6103f182826108cb565b5050565b7f000000000000000000000000000000000000000000000000000000000000000034101561044f576040517fe418b75b00000000000000000000000000000000000000000000000000000000815260040160405180910390fd5b6000600181111561046357610462610bd7565b5b600160149054906101000a900460ff16600181111561048557610484610bd7565b5b146104bc576040517fd24a271400000000000000000000000000000000000000000000000000000000815260040160405180910390fd5b6000339080600181540180825580915050600190039060005260206000200160009091909190916101000a81548173ffffffffffffffffffffffffffffffffffffffff021916908373ffffffffffffffffffffffffffffffffffffffff1602179055503373ffffffffffffffffffffffffffffffffffffffff167f0805e1d667bddb8a95f0f09880cf94f403fb596ce79928d9f29b74203ba284d460405160405180910390a2565b600061057e6040518060200160405280600081525061079a565b509050806105ed5747600080549050600160149054906101000a900460ff1660018111156105af576105ae610bd7565b5b6040517f584327aa0000000000000000000000000000000000000000000000000000000081526004016105e493929190611180565b60405180910390fd5b60018060146101000a81548160ff0219169083600181111561061257610611610bd7565b5b021790555060007f000000000000000000000000000000000000000000000000000000000000000073ffffffffffffffffffffffffffffffffffffffff16635d3b1d307f00000000000000000000000000000000000000000000000000000000000000007f000000000000000000000000000000000000000000000000000000000000000060037f000000000000000000000000000000000000000000000000000000000000000060016040518663ffffffff1660e01b81526004016106dc95949392919061122f565b6020604051808303816000875af11580156106fb573d6000803e3d6000fd5b505050506040513d601f19601f8201168201806040525081019061071f9190611297565b9050807fcd6e45c8998311cab7e9d4385596cac867e20a0587194b954fa3a731c93ce78b60405160405180910390a250505050565b6000600160009054906101000a900473ffffffffffffffffffffffffffffffffffffffff16905090565b6000600163ffffffff16905090565b6000600361ffff16905090565b6000606060008060018111156107b3576107b2610bd7565b5b600160149054906101000a900460ff1660018111156107d5576107d4610bd7565b5b14905060007f00000000000000000000000000000000000000000000000000000000000000006002544261080991906112f3565b119050600080600080549050119050600080471190508380156108295750825b80156108325750815b801561083b5750805b955050505050915091565b60007f0000000000000000000000000000000000000000000000000000000000000000905090565b6000600254905090565b600080828154811061088d5761088c611327565b5b9060005260206000200160009054906101000a900473ffffffffffffffffffffffffffffffffffffffff169050919050565b60008080549050905090565b60008080549050826000815181106108e6576108e5611327565b5b60200260200101516108f89190611385565b9050600080828154811061090f5761090e611327565b5b9060005260206000200160009054906101000a900473ffffffffffffffffffffffffffffffffffffffff16905080600160006101000a81548173ffffffffffffffffffffffffffffffffffffffff021916908373ffffffffffffffffffffffffffffffffffffffff1602179055506000600160146101000a81548160ff021916908360018111156109a3576109a2610bd7565b5b0217905550600067ffffffffffffffff8111156109c3576109c2610cbf565b5b6040519080825280602002602001820160405280156109f15781602001602082028036833780820191505090505b5060009080519060200190610a07929190610afc565b504260028190555060008173ffffffffffffffffffffffffffffffffffffffff1647604051610a35906113e7565b60006040518083038185875af1925050503d8060008114610a72576040519150601f19603f3d011682016040523d82523d6000602084013e610a77565b606091505b5050905080610ab2576040517f4514622000000000000000000000000000000000000000000000000000000000815260040160405180910390fd5b8173ffffffffffffffffffffffffffffffffffffffff167fb896f9276cf1b0dbe15c17dd5b14b9dc204c39d78658ea01c3db123fce01118360405160405180910390a25050505050565b828054828255906000526020600020908101928215610b75579160200282015b82811115610b745782518260006101000a81548173ffffffffffffffffffffffffffffffffffffffff021916908373ffffffffffffffffffffffffffffffffffffffff16021790555091602001919060010190610b1c565b5b509050610b829190610b86565b5090565b5b80821115610b9f576000816000905550600101610b87565b5090565b6000819050919050565b610bb681610ba3565b82525050565b6000602082019050610bd16000830184610bad565b92915050565b7f4e487b7100000000000000000000000000000000000000000000000000000000600052602160045260246000fd5b60028110610c1757610c16610bd7565b5b50565b6000819050610c2882610c06565b919050565b6000610c3882610c1a565b9050919050565b610c4881610c2d565b82525050565b6000602082019050610c636000830184610c3f565b92915050565b6000604051905090565b600080fd5b600080fd5b610c8681610ba3565b8114610c9157600080fd5b50565b600081359050610ca381610c7d565b92915050565b600080fd5b6000601f19601f8301169050919050565b7f4e487b7100000000000000000000000000000000000000000000000000000000600052604160045260246000fd5b610cf782610cae565b810181811067ffffffffffffffff82111715610d1657610d15610cbf565b5b80604052505050565b6000610d29610c69565b9050610d358282610cee565b919050565b600067ffffffffffffffff821115610d5557610d54610cbf565b5b602082029050602081019050919050565b600080fd5b6000610d7e610d7984610d3a565b610d1f565b90508083825260208201905060208402830185811115610da157610da0610d66565b5b835b81811015610dca5780610db68882610c94565b845260208401935050602081019050610da3565b5050509392505050565b600082601f830112610de957610de8610ca9565b5b8135610df9848260208601610d6b565b91505092915050565b60008060408385031215610e1957610e18610c73565b5b6000610e2785828601610c94565b925050602083013567ffffffffffffffff811115610e4857610e47610c78565b5b610e5485828601610dd4565b9150509250929050565b600080fd5b60008083601f840112610e7957610e78610ca9565b5b8235905067ffffffffffffffff811115610e9657610e95610e5e565b5b602083019150836001820283011115610eb257610eb1610d66565b5b9250929050565b60008060208385031215610ed057610ecf610c73565b5b600083013567ffffffffffffffff811115610eee57610eed610c78565b5b610efa85828601610e63565b92509250509250929050565b600073ffffffffffffffffffffffffffffffffffffffff82169050919050565b6000610f3182610f06565b9050919050565b610f4181610f26565b82525050565b6000602082019050610f5c6000830184610f38565b92915050565b600080fd5b600067ffffffffffffffff821115610f8257610f81610cbf565b5b610f8b82610cae565b9050602081019050919050565b82818337600083830152505050565b6000610fba610fb584610f67565b610d1f565b905082815260208101848484011115610fd657610fd5610f62565b5b610fe1848285610f98565b509392505050565b600082601f830112610ffe57610ffd610ca9565b5b813561100e848260208601610fa7565b91505092915050565b60006020828403121561102d5761102c610c73565b5b600082013567ffffffffffffffff81111561104b5761104a610c78565b5b61105784828501610fe9565b91505092915050565b60008115159050919050565b61107581611060565b82525050565b600081519050919050565b600082825260208201905092915050565b60005b838110156110b557808201518184015260208101905061109a565b60008484015250505050565b60006110cc8261107b565b6110d68185611086565b93506110e6818560208601611097565b6110ef81610cae565b840191505092915050565b600060408201905061110f600083018561106c565b818103602083015261112181846110c1565b90509392505050565b6000602082840312156111405761113f610c73565b5b600061114e84828501610c94565b91505092915050565b600060408201905061116c6000830185610f38565b6111796020830184610f38565b9392505050565b60006060820190506111956000830186610bad565b6111a26020830185610bad565b6111af6040830184610bad565b949350505050565b6000819050919050565b6111ca816111b7565b82525050565b600067ffffffffffffffff82169050919050565b6111ed816111d0565b82525050565b600061ffff82169050919050565b61120a816111f3565b82525050565b600063ffffffff82169050919050565b61122981611210565b82525050565b600060a08201905061124460008301886111c1565b61125160208301876111e4565b61125e6040830186611201565b61126b6060830185611220565b6112786080830184611220565b9695505050505050565b60008151905061129181610c7d565b92915050565b6000602082840312156112ad576112ac610c73565b5b60006112bb84828501611282565b91505092915050565b7f4e487b7100000000000000000000000000000000000000000000000000000000600052601160045260246000fd5b60006112fe82610ba3565b915061130983610ba3565b9250828203905081811115611321576113206112c4565b5b92915050565b7f4e487b7100000000000000000000000000000000000000000000000000000000600052603260045260246000fd5b7f4e487b7100000000000000000000000000000000000000000000000000000000600052601260045260246000fd5b600061139082610ba3565b915061139b83610ba3565b9250826113ab576113aa611356565b5b828206905092915050565b600081905092915050565b50565b60006113d16000836113b6565b91506113dc826113c1565b600082019050919050565b60006113f2826113c4565b915081905091905056fea2646970667358221220a47d35078b5026fabbea1750e8ecf35d5bb19075494093729fff21b0abb678e864736f6c63430008110033",
  "devdoc": {
    "kind": "dev",
    "methods": {},
    "version": 1
  },
  "userdoc": {
    "kind": "user",
    "methods": {
      "getRaffleState()": {
        "notice": "Getter Functions "
      }
    },
    "version": 1
  },
  "storageLayout": {
    "storage": [
      {
        "astId": 196,
        "contract": "contracts/Raffle.sol:Raffle",
        "label": "s_players",
        "offset": 0,
        "slot": "0",
        "type": "t_array(t_address_payable)dyn_storage"
      },
      {
        "astId": 213,
        "contract": "contracts/Raffle.sol:Raffle",
        "label": "s_recentWinner",
        "offset": 0,
        "slot": "1",
        "type": "t_address"
      },
      {
        "astId": 216,
        "contract": "contracts/Raffle.sol:Raffle",
        "label": "s_raffleState",
        "offset": 20,
        "slot": "1",
        "type": "t_enum(RaffleState)191"
      },
      {
        "astId": 218,
        "contract": "contracts/Raffle.sol:Raffle",
        "label": "s_lastTimeStamp",
        "offset": 0,
        "slot": "2",
        "type": "t_uint256"
      }
    ],
    "types": {
      "t_address": {
        "encoding": "inplace",
        "label": "address",
        "numberOfBytes": "20"
      },
      "t_address_payable": {
        "encoding": "inplace",
        "label": "address payable",
        "numberOfBytes": "20"
      },
      "t_array(t_address_payable)dyn_storage": {
        "base": "t_address_payable",
        "encoding": "dynamic_array",
        "label": "address payable[]",
        "numberOfBytes": "32"
      },
      "t_enum(RaffleState)191": {
        "encoding": "inplace",
        "label": "enum Raffle.RaffleState",
        "numberOfBytes": "1"
      },
      "t_uint256": {
        "encoding": "inplace",
        "label": "uint256",
        "numberOfBytes": "32"
      }
    }
  }
}